S01500007761746368646F675F74696E792E737265639B
S11300007CC094C093C092C0DEC290C08FC0FFC2B7
S113001026C38CC08BC08AC089C088C087C086C0F4
S113002085C084C083C05802390036002E00726532
S113003073746172740077640068656C7000727325
S11300407400736574004572723A20756E6B6E6F3E
S1130050776E20706172616D730D0A007764205BA6
S11300607273747C736574203C7365633E5D0D0A22
S11300700972737409202D20726573657420776486
S11300802074696D65720D0A09736574203C73658B
S1130090633E09202D202830202D207475726E2097
S11300A06F66662074696D6572290D0A0068656C57
S11300B070202D20646973706C6179207468697391
S11300C02068656C703B0D0A7764205B7273747CE6
S11300D0736574203C7365636F6E64733E5D3B0DA2
S11300E00A726573746172743B0D0A000D0A00652F
S11300F072720D0A006F6B0D0A0011241FBECFED42
S1130100CDBF10E0A0E6B0E0E2EEF8E002C005905A
S11301100D92AC36B107D9F720E0ACE6B0E001C0EF
S11301201D92A53CB207E1F748D2D9C369CF959A8D
S11301300895FDDF40E068EE73E08AEB90E008C3C9
S11301409598089586E290E0A9D3909391008093C6
S113015090008D9AF5CF8091900090919100009736
S113016041F068EE73E089D341E0BC0189E990E095
S1130170EFC20895E5DFEFCFBC0186E290E091D3B2
S1130180E1CF98E088E10FB6F894A89581BD0FBE41
S113019091BDFFCF8DEA90E0BEC18CE590E0BBD16C
S11301A086E690E0A6D180919000909191004CD188
S11301B0A0D18CEE90E0AFC1CF93DF93EC0186E445
S11301C090E0A9D1CE0195D18CEE90E0DF91CF9152
S11301D0A2C1CF93DF93EC016130B1F46EE370E020
S11301E088819981CBD0882319F0DF91CF91B3CF47
S11301F062E470E088819981C1D0811126C086E4CF
S113020090E0DF91CF9187C16230E1F462E470E065
S113021088819981B3D08823A9F08A819B8104D1F4
S1130220811105C08A819B81DF91CF91C5CF8A81DD
S11302309B818ED08630B0F78A819B81C7D0DF91B5
S1130240CF919ACF8A819B81B7DFDF91CF91A5CFE0
S1130250EF92FF920F931F93CF93DF931092C400FA
S1130260EC017C0184E1E80EF11C8E01F80181911E
S11302708F018823F1F08091C4008330D0F4F80119
S1130280808153D0882391F0F801319780818032A6
S113029069F48091C400E82FF0E0EE0FFF1FE254F0
S11302A0FF4F118300838F5F8093C4000E151F05D9
S11302B0E9F68881803209F418822196CE15DF058B
S11302C0C1F7DF91CF911F910F91FF90EF900895A7
S11302D0EF92FF920F931F93CF93DF937C01B8DFCC
S11302E008E210E0C0E0D0E0F80165917491C70124
S11302F045D0811107C021960E5F1F4FC330D10531
S113030099F70CC0CC0FDD1FC05ADF4FE881F9818B
S11303106091C4008EEB90E0099581E0DF91CF916C
S11303201F910F91FF90EF900895982F8F7D815426
S11303308A3158F080ED890F8A3038F081E09C379B
S113034031F0963221F080E0089581E00895089517
S11303509C0180E0F901E80FF11D9081992311F0CF
S11303608F5FF8CF08959C0180E0F901E80FF11D3B
S1130370E491EE2311F08F5FF8CF0895FF920F936D
S11303801F93CF93DF93C82F192FF62E072FE0DF8B
S1130390D82F8F2D902FE7DFD81311C09C2FEF2D6E
S11303A0F02FAC2FB12F8A2F891B8D1730F42D918C
S11303B0849131962817B9F302C081E001C080E02E
S11303C0DF91CF911F910F91FF9008950F931F9389
S11303D0CF93DF938C0120E0F801E20FF11D9081AF
S11303E090539A3010F42F5FF7CFA1E0B0E0E0E033
S11303F0F0E0222399F0E801C20FD11D2197488132
S1130400842F90E0C097BD0138D2E80FF91FCD01C9
S11304106AE070E032D2DC012150EBCFCF01DF91F2
S1130420CF911F910F910895AC0120E0FA01E20FE2
S1130430F11D9081992331F02F5F90539A30B0F3DE
S113044080E0089581E00895FFCF82EC82B919B865
S113045082E08BB988E18AB98EE083B90895E0918E
S1130460A6008091A700E81302C05598089581E082
S11304708E0F8093A600E371F0E0EE56FF4F80816B
S11304808CB908959091A6008091A7009813559A6D
S113049008959091A700292F30E04091A600241BD5
S11304A031092431310551F0E92FE371F0E0EE56C2
S11304B0FF4F80839F5F9093A700559A0895CF9331
S11304C0CCB18C2FE6DF9091BD00C83031F480911F
S11304D0BC00891759F0915007C0E92FE371F0E08F
S11304E0E855FF4FC0839F5F9093BD008C2FCF9141
S11304F008950F931F93CF938C01C0E0F801EC0F84
S1130500F11D8081882319F0C4DFCF5FF7CFCF912D
S11305101F910F91B7CF1F93CF93DF931FB7F89419
S1130520EC01FE0184912196882311F0B2DFF9CF0A
S11305301FBFDF91CF911F910895CF93DF93CDB764
S1130540DD27C551CDBF9EDF5091BD002091BC0079
S113055030E0832F90E02517A1F0E22FE371F0E063
S1130560E855FF4F4081E1E0F0E0EC0FFD1FE80F9C
S1130570F91F40834A3019F04D3009F03F5F2F5F77
S1130580E8CF2093BC00E1E0F0E0EC0FFD1FE80FA2
S1130590F91F1082CE0101969BDE882319F085EFA6
S11305A090E002C08FEE90E0B6DFCB5ECDBFDF916E
S11305B0CF9108954ADF87D0C5CDFCDFCCDD789498
S11305C0FED060DFFDCF1F920F920FB60F92112461
S11305D02F933F934F935F936F937F938F939F9347
S11305E0AF93BF93EF93FF93789414D1FF91EF915E
S11305F0BF91AF919F918F917F916F915F914F9137
S11306003F912F910F900FBE0F901F9018951F923E
S11306100F920FB60F9211242F933F934F935F9332
S11306206F937F938F939F93AF93BF93EF93FF93B6
S113063046DF8D3019F48DE992E073D0FF91EF918C
S1130640BF91AF919F918F917F916F915F914F91E6
S11306503F912F910F900FBE0F901F9018951F92EE
S11306600F920FB60F9211242F933F934F935F93E2
S11306706F937F938F939F93AF93BF93EF93FF9366
S1130680EEDEFF91EF91BF91AF919F918F917F919A
S11306906F915F914F913F912F910F900FBE0F90EB
S11306A01F90189508951FBC88E08EBD8EB5836099
S11306B08EBD1DBC1CBC8DE790E09BBD8ABD89B777
S11306C0806489BF089582E593E0909385008093C8
S11306D08400909387008093860090938900809390
S11306E0880090938B0080938A0090938D00809370
S11306F08C0090938F0080938E0080E090E022E540
S113070033E0FC01EE0FFF1FEE0FFF1FE459FF4F14
S1130710318320831382128201968630910589F7F2
S1130720C2CFAC012FB7F89490E0E92FF0E0EE0FC0
S1130730FF1FEC57FF4F608171816255734011F0C8
S11307409F5FF3CF963011F0518340832FBF0895FC
S11307506115710509F4E5CFAFB7F89420E030E0F6
S1130760442399F0F901EE0FFF1FEE0FFF1FE45928
S1130770FF4F4081518148175907A9F02F5F3F4F20
S11307802630310579F720E030E0F901EE0FFF1F44
S1130790EE0FFF1FE459FF4F4081518142555340F2
S11307A039F491838083615071097383628305C036
S11307B02F5F3F4F2630310541F7AFBF0895CF93E8
S11307C0DF932FB7F894E0918400F091850083E0E3
S11307D0E235F807D9F080E090E0DC010196EC0105
S11307E0CC0FDD1FCC57DF4F48815981AA0FBB1FA7
S11307F0AC57BF4F11965C934E938530910569F7C2
S113080082E593E090938F0080938E002FBFDF9159
S1130810CF910994EF92FF920F931F93CF93DF939D
S113082000E010E092E5E92E93E0F92EE801CC0F08
S1130830DD1FCC0FDD1FC459DF4F8881998182559C
S1130840934079F08A819B81892B31F08A819B8145
S113085001979B838A8305C08881998162DFF9822D
S1130860E8820F5F1F4F0630110501F7DF91CF912A
S11308701F910F91FF90EF9008950024552704C015
S1130880080E591F880F991F009729F076956795D0
S1130890B8F37105B9F7802D952F0895A8E142E0CA
S11308A005C010D0272F0FC0A82F862FE82FE1995D
S11308B0FECF05C0EEBBE09AE3950DB20D92415018
S11308C0C8F70895262FE199FECF1CBA8EBB2DBB25
S11308D00FB6F894E29AE19A0FBE01960895F8943F
S10508E0FFCF44
S10F08E2CA00E900C1004375723A00002E
S9030000FC
