S01500007761746368646F675F74696E792E737265639B
S11300004AC062C061C060C067C25EC05DC088C2D1
S1130010AFC25AC059C058C057C056C055C054C0CA
S113002053C052C051C0580234002C00726573741E
S1130030617274007764007764205B7273747C73FC
S11300406574203C7365633E5D0D0A09727374091F
S1130050202D2072657365742077642074696D6542
S1130060720D0A09736574203C7365633E09202D83
S1130070202830202D207475726E206F66662074DF
S1130080696D6572290D0A000D0A006572720D0A08
S1130090006F6B0D0A0011241FBECFEDCDBF10E021
S11300A0A0E6B0E0E4EFF7E002C005900D92AA36B6
S11300B0B107D9F720E0AAE6B0E001C01D92A33C45
S11300C0B207E1F703D294C39BCF959A0895FDDF5D
S11300D040E068EE73E088E890E0C3C29598089524
S11300E086E290E064D390938F0080938E008D9A83
S11300F0F5CF80918E0090918F00009741F068EECB
S113010073E044D341E0BC0187E690E0AAC20895BD
S1130110E5DFEFCFBC0186E290E04CD3E1CF98E07D
S113012088E10FB6F894A89581BD0FBE91BDFFCFAD
S113013087E390E079D184E690E064D180918E00E9
S113014090918F000AD15ED188E890E06DC1CF9381
S1130150DF93613019F4DF91CF91CBCFEC01EA81C9
S1130160FB81808187D0882331F08A819B81C7D02D
S1130170DF91CF91CFCFDF91CF91DACFEF92FF9282
S11301800F931F93CF93DF931092C200EC017C0175
S113019084E1E80EF11C8E01F80181918F0188231E
S11301A0F1F08091C2008330D0F4F80180814FD007
S11301B0882391F0F80131978081803269F480912D
S11301C0C200E82FF0E0EE0FFF1FE454FF4F11834D
S11301D000838F5F8093C2000E151F05E9F68881A6
S11301E0803209F418822196CE15DF05C1F7DF911C
S11301F0CF911F910F91FF90EF900895EF92FF928E
S11302001F93CF93DF937C01B9DF10E0C12FD0E0BF
S1130210CC0FDD1FFE01E85DFF4F65917491C701AE
S113022046D0811104C0113061F011E0EFCFC05A03
S1130230DF4FE881F9816091C2008CEB90E0099571
S113024081E0DF91CF911F91FF90EF900895982F57
S11302508F7D81548A3158F080ED890F8A3038F0CF
S113026081E09C3731F0963221F080E0089581E0FE
S11302700895089590ED980F81E09A3008F080E099
S113028008959C0180E0F901E80FF11D9081992304
S113029011F08F5FF8CF08959C0180E0F901E80F19
S11302A0F11DE491EE2311F08F5FF8CF0895FF92D2
S11302B00F931F93CF93DF93C82F192FF62E072F79
S11302C0E0DFD82F8F2D902FE7DFD81311C09C2F9C
S11302D0EF2DF02FAC2FB12F8A2F891B8D1730F4FF
S11302E02D91849131962817B9F302C081E001C0A1
S11302F080E0DF91CF911F910F91FF9008950F93AC
S11303001F93CF93DF938C0120E0F801E20FF11DDE
S1130310908190539A3010F42F5FF7CFA1E0B0E0B2
S1130320E0E0F0E0222399F0E801C20FD11D21970B
S11303304881842F90E0C097BD0128D2E80FF91FAF
S1130340CD016AE070E022D2DC012150EBCFCF0175
S1130350DF91CF911F910F910895FFCF82EC82B965
S113036019B882E08BB988E18AB98EE083B908951F
S1130370E091A4008091A500E81302C05598089567
S113038081E08E0F8093A400E371F0E0E057FF4F0B
S113039080818CB908959091A4008091A500981350
S11303A0559A08959091A500292F30E04091A4001A
S11303B0241B31092431310551F0E92FE371F0E0B8
S11303C0E057FF4F80839F5F9093A500559A08954F
S11303D0CF93CCB18C2FE6DF9091BB00C83031F4C1
S11303E08091BA00891759F0915007C0E92FE37141
S11303F0F0E0EA55FF4FC0839F5F9093BB008C2FC2
S1130400CF9108950F931F93CF938C01C0E0F8010F
S1130410EC0FF11D8081882319F0C4DFCF5FF7CF83
S1130420CF911F910F91B7CF1F93CF93DF931FB736
S1130430F894EC01FE0184912196882311F0B2DF37
S1130440F9CF1FBFDF91CF911F910895CF93DF9311
S1130450CDB7DD27C551CDBF9EDF5091BB002091A4
S1130460BA0030E0832F90E02517A1F0E22FE3716A
S1130470F0E0EA55FF4F4081E1E0F0E0EC0FFD1FB2
S1130480E80FF91F40834A3019F04D3009F03F5FFF
S11304902F5FE8CF2093BA00E1E0F0E0EC0FFD1FFE
S11304A0E80FF91F1082CE010196A8DE882319F007
S11304B081E990E002C08BE890E0B6DFCB5ECDBF6F
S11304C0DF91CF9108954ADF87D00ACEFCDF11DE99
S11304D07894FED060DFFDCF1F920F920FB60F927B
S11304E011242F933F934F935F936F937F938F9335
S11304F09F93AF93BF93EF93FF93789414D1FF919D
S1130500EF91BF91AF919F918F917F916F915F9187
S11305104F913F912F910F900FBE0F901F90189500
S11305201F920F920FB60F9211242F933F934F9364
S11305305F936F937F938F939F93AF93BF93EF9347
S1130540FF9346DF8D3019F486E292E073D0FF9179
S1130550EF91BF91AF919F918F917F916F915F9137
S11305604F913F912F910F900FBE0F901F901895B0
S11305701F920F920FB60F9211242F933F934F9314
S11305805F936F937F938F939F93AF93BF93EF93F7
S1130590FF93EEDEFF91EF91BF91AF919F918F9109
S11305A07F916F915F914F913F912F910F900FBE6B
S11305B00F901F90189508951FBC88E08EBD8EB5CE
S11305C083608EBD1DBC1CBC8DE790E09BBD8ABDC5
S11305D089B7806489BF08958BED92E0909383007E
S11305E08093820090938500809384009093870089
S11305F080938600909389008093880090938B0069
S113060080938A0090938D0080938C0080E090E02A
S11306102BED32E0FC01EE0FFF1FEE0FFF1FE6593A
S1130620FF4F318320831382128201968630910515
S113063089F7C2CFAC012FB7F89490E0E92FF0E02E
S1130640EE0FFF1FEE57FF4F608171816B5D7240AB
S113065011F09F5FF3CF963011F0518340832FBF89
S113066008956115710509F4E5CFAFB7F89420E05A
S113067030E0442399F0F901EE0FFF1FEE0FFF1F46
S1130680E659FF4F4081518148175907A9F02F5F60
S11306903F4F2630310579F720E030E0F901EE0FC5
S11306A0FF1FEE0FFF1FE659FF4F408151814B5D45
S11306B0524039F49183808361507109738362835A
S11306C005C02F5F3F4F2630310541F7AFBF089576
S11306D0CF93DF932FB7F894E0918200F0918300D9
S11306E082E0EB3DF807D9F080E090E0DC01019670
S11306F0EC01CC0FDD1FCE57DF4F48815981AA0F83
S1130700BB1FAE57BF4F11965C934E938530910536
S113071069F78BED92E090938D0080938C002FBF4E
S1130720DF91CF910994EF92FF920F931F93CF9390
S1130730DF9300E010E09BEDE92E92E0F92EE80152
S1130740CC0FDD1FCC0FDD1FC659DF4F8881998187
S11307508B5D924079F08A819B81892B31F08A816B
S11307609B8101979B838A8305C08881998162DF7D
S1130770F982E8820F5F1F4F0630110501F7DF9100
S1130780CF911F910F91FF90EF900895002455276A
S113079004C0080E591F880F991F009729F07695F9
S11307A06795B8F37105B9F7802D952F0895A8E1E1
S11307B042E005C010D0272F0FC0A82F862FE82FA6
S11307C0E199FECF05C0EEBBE09AE3950DB20D9220
S11307D04150C8F70895262FE199FECF1CBA8EBB6D
S11307E02DBB0FB6F894E29AE19A0FBE01960895D4
S10707F0F894FFCFA7
S10D07F4A7008F004375723A00005D
S9030000FC
